{
	"EcommerceWithRefund.sol": {
		"EcommerceWithRefund": {
			"abi": [
				{
					"inputs": [],
					"stateMutability": "nonpayable",
					"type": "constructor"
				},
				{
					"anonymous": false,
					"inputs": [
						{
							"indexed": false,
							"internalType": "uint256",
							"name": "price",
							"type": "uint256"
						}
					],
					"name": "ItemListed",
					"type": "event"
				},
				{
					"anonymous": false,
					"inputs": [
						{
							"indexed": false,
							"internalType": "address",
							"name": "buyer",
							"type": "address"
						},
						{
							"indexed": false,
							"internalType": "uint256",
							"name": "amount",
							"type": "uint256"
						}
					],
					"name": "ItemPurchased",
					"type": "event"
				},
				{
					"anonymous": false,
					"inputs": [
						{
							"indexed": false,
							"internalType": "address",
							"name": "buyer",
							"type": "address"
						},
						{
							"indexed": false,
							"internalType": "uint256",
							"name": "amount",
							"type": "uint256"
						}
					],
					"name": "RefundIssued",
					"type": "event"
				},
				{
					"inputs": [],
					"name": "buyer",
					"outputs": [
						{
							"internalType": "address",
							"name": "",
							"type": "address"
						}
					],
					"stateMutability": "view",
					"type": "function"
				},
				{
					"inputs": [],
					"name": "itemSold",
					"outputs": [
						{
							"internalType": "bool",
							"name": "",
							"type": "bool"
						}
					],
					"stateMutability": "view",
					"type": "function"
				},
				{
					"inputs": [
						{
							"internalType": "uint256",
							"name": "_price",
							"type": "uint256"
						}
					],
					"name": "listItem",
					"outputs": [],
					"stateMutability": "nonpayable",
					"type": "function"
				},
				{
					"inputs": [],
					"name": "price",
					"outputs": [
						{
							"internalType": "uint256",
							"name": "",
							"type": "uint256"
						}
					],
					"stateMutability": "view",
					"type": "function"
				},
				{
					"inputs": [],
					"name": "purchase",
					"outputs": [],
					"stateMutability": "payable",
					"type": "function"
				},
				{
					"inputs": [],
					"name": "refund",
					"outputs": [],
					"stateMutability": "nonpayable",
					"type": "function"
				},
				{
					"inputs": [],
					"name": "refunded",
					"outputs": [
						{
							"internalType": "bool",
							"name": "",
							"type": "bool"
						}
					],
					"stateMutability": "view",
					"type": "function"
				},
				{
					"inputs": [],
					"name": "seller",
					"outputs": [
						{
							"internalType": "address",
							"name": "",
							"type": "address"
						}
					],
					"stateMutability": "view",
					"type": "function"
				},
				{
					"inputs": [],
					"name": "withdraw",
					"outputs": [],
					"stateMutability": "nonpayable",
					"type": "function"
				}
			],
			"devdoc": {
				"kind": "dev",
				"methods": {},
				"version": 1
			},
			"evm": {
				"assembly": "    /* \"EcommerceWithRefund.sol\":61:1951  contract EcommerceWithRefund {... */\n  mstore(0x40, 0x80)\n    /* \"EcommerceWithRefund.sol\":388:494  constructor() {... */\n  callvalue\n  dup1\n  iszero\n  tag_1\n  jumpi\n  revert(0x00, 0x00)\ntag_1:\n  pop\n    /* \"EcommerceWithRefund.sol\":413:419  seller */\n  0x00\n    /* \"EcommerceWithRefund.sol\":413:432  seller = msg.sender */\n  dup1\n  sload\n  not(sub(shl(0xa0, 0x01), 0x01))\n  and\n    /* \"EcommerceWithRefund.sol\":422:432  msg.sender */\n  caller\n    /* \"EcommerceWithRefund.sol\":413:432  seller = msg.sender */\n  or\n  swap1\n  sstore\n    /* \"EcommerceWithRefund.sol\":443:451  itemSold */\n  0x03\n    /* \"EcommerceWithRefund.sol\":443:459  itemSold = false */\n  dup1\n  sload\n  not(0xffff)\n    /* \"EcommerceWithRefund.sol\":470:486  refunded = false */\n  and\n  swap1\n  sstore\n    /* \"EcommerceWithRefund.sol\":61:1951  contract EcommerceWithRefund {... */\n  dataSize(sub_0)\n  dup1\n  dataOffset(sub_0)\n  0x00\n  codecopy\n  0x00\n  return\nstop\n\nsub_0: assembly {\n        /* \"EcommerceWithRefund.sol\":61:1951  contract EcommerceWithRefund {... */\n      mstore(0x40, 0x80)\n      jumpi(tag_1, lt(calldatasize, 0x04))\n      shr(0xe0, calldataload(0x00))\n      dup1\n      0x08551a53\n      eq\n      tag_2\n      jumpi\n      dup1\n      0x12f53950\n      eq\n      tag_3\n      jumpi\n      dup1\n      0x2ce38190\n      eq\n      tag_4\n      jumpi\n      dup1\n      0x3ccfd60b\n      eq\n      tag_5\n      jumpi\n      dup1\n      0x438e897a\n      eq\n      tag_6\n      jumpi\n      dup1\n      0x590e1ae3\n      eq\n      tag_7\n      jumpi\n      dup1\n      0x64edfbf0\n      eq\n      tag_8\n      jumpi\n      dup1\n      0x7150d8ae\n      eq\n      tag_9\n      jumpi\n      dup1\n      0xa035b1fe\n      eq\n      tag_10\n      jumpi\n    tag_1:\n      revert(0x00, 0x00)\n        /* \"EcommerceWithRefund.sol\":97:118  address public seller */\n    tag_2:\n      callvalue\n      dup1\n      iszero\n      tag_11\n      jumpi\n      revert(0x00, 0x00)\n    tag_11:\n      pop\n      sload(0x00)\n      tag_12\n      swap1\n      sub(shl(0xa0, 0x01), 0x01)\n      and\n      dup2\n      jump\n    tag_12:\n      mload(0x40)\n      sub(shl(0xa0, 0x01), 0x01)\n        /* \"#utility.yul\":178:210   */\n      swap1\n      swap2\n      and\n        /* \"#utility.yul\":160:211   */\n      dup2\n      mstore\n        /* \"#utility.yul\":148:150   */\n      0x20\n        /* \"#utility.yul\":133:151   */\n      add\n        /* \"EcommerceWithRefund.sol\":97:118  address public seller */\n    tag_14:\n      mload(0x40)\n      dup1\n      swap2\n      sub\n      swap1\n      return\n        /* \"EcommerceWithRefund.sol\":206:226  bool public refunded */\n    tag_3:\n      callvalue\n      dup1\n      iszero\n      tag_16\n      jumpi\n      revert(0x00, 0x00)\n    tag_16:\n      pop\n      sload(0x03)\n      tag_17\n      swap1\n      0x0100\n      swap1\n      div\n      0xff\n      and\n      dup2\n      jump\n    tag_17:\n      mload(0x40)\n        /* \"#utility.yul\":387:401   */\n      swap1\n      iszero\n        /* \"#utility.yul\":380:402   */\n      iszero\n        /* \"#utility.yul\":362:403   */\n      dup2\n      mstore\n        /* \"#utility.yul\":350:352   */\n      0x20\n        /* \"#utility.yul\":335:353   */\n      add\n        /* \"EcommerceWithRefund.sol\":206:226  bool public refunded */\n      tag_14\n        /* \"#utility.yul\":222:409   */\n      jump\n        /* \"EcommerceWithRefund.sol\":545:777  function listItem(uint256 _price) external {... */\n    tag_4:\n      callvalue\n      dup1\n      iszero\n      tag_21\n      jumpi\n      revert(0x00, 0x00)\n    tag_21:\n      pop\n      tag_22\n      tag_23\n      calldatasize\n      0x04\n      tag_24\n      jump\t// in\n    tag_23:\n      tag_25\n      jump\t// in\n    tag_22:\n      stop\n        /* \"EcommerceWithRefund.sol\":1635:1948  function withdraw() external {... */\n    tag_5:\n      callvalue\n      dup1\n      iszero\n      tag_26\n      jumpi\n      revert(0x00, 0x00)\n    tag_26:\n      pop\n      tag_22\n      tag_28\n      jump\t// in\n        /* \"EcommerceWithRefund.sol\":179:199  bool public itemSold */\n    tag_6:\n      callvalue\n      dup1\n      iszero\n      tag_29\n      jumpi\n      revert(0x00, 0x00)\n    tag_29:\n      pop\n      sload(0x03)\n      tag_17\n      swap1\n      0xff\n      and\n      dup2\n      jump\n        /* \"EcommerceWithRefund.sol\":1153:1563  function refund() external {... */\n    tag_7:\n      callvalue\n      dup1\n      iszero\n      tag_33\n      jumpi\n      revert(0x00, 0x00)\n    tag_33:\n      pop\n      tag_22\n      tag_35\n      jump\t// in\n        /* \"EcommerceWithRefund.sol\":850:1112  function purchase() external payable {... */\n    tag_8:\n      tag_22\n      tag_37\n      jump\t// in\n        /* \"EcommerceWithRefund.sol\":125:145  address public buyer */\n    tag_9:\n      callvalue\n      dup1\n      iszero\n      tag_38\n      jumpi\n      revert(0x00, 0x00)\n    tag_38:\n      pop\n      sload(0x01)\n      tag_12\n      swap1\n      sub(shl(0xa0, 0x01), 0x01)\n      and\n      dup2\n      jump\n        /* \"EcommerceWithRefund.sol\":152:172  uint256 public price */\n    tag_10:\n      callvalue\n      dup1\n      iszero\n      tag_42\n      jumpi\n      revert(0x00, 0x00)\n    tag_42:\n      pop\n      tag_43\n      sload(0x02)\n      dup2\n      jump\n    tag_43:\n      mload(0x40)\n        /* \"#utility.yul\":745:770   */\n      swap1\n      dup2\n      mstore\n        /* \"#utility.yul\":733:735   */\n      0x20\n        /* \"#utility.yul\":718:736   */\n      add\n        /* \"EcommerceWithRefund.sol\":152:172  uint256 public price */\n      tag_14\n        /* \"#utility.yul\":599:776   */\n      jump\n        /* \"EcommerceWithRefund.sol\":545:777  function listItem(uint256 _price) external {... */\n    tag_25:\n        /* \"EcommerceWithRefund.sol\":621:627  seller */\n      and(sub(shl(0xa0, 0x01), 0x01), sload(0x00))\n        /* \"EcommerceWithRefund.sol\":607:617  msg.sender */\n      caller\n        /* \"EcommerceWithRefund.sol\":607:627  msg.sender == seller */\n      eq\n        /* \"EcommerceWithRefund.sol\":599:661  require(msg.sender == seller, \"Only seller can list the item\") */\n      tag_48\n      jumpi\n      mload(0x40)\n      shl(0xe5, 0x461bcd)\n      dup2\n      mstore\n        /* \"#utility.yul\":983:985   */\n      0x20\n        /* \"EcommerceWithRefund.sol\":599:661  require(msg.sender == seller, \"Only seller can list the item\") */\n      0x04\n      dup3\n      add\n        /* \"#utility.yul\":965:986   */\n      mstore\n        /* \"#utility.yul\":1022:1024   */\n      0x1d\n        /* \"#utility.yul\":1002:1020   */\n      0x24\n      dup3\n      add\n        /* \"#utility.yul\":995:1025   */\n      mstore\n        /* \"#utility.yul\":1061:1092   */\n      0x4f6e6c792073656c6c65722063616e206c69737420746865206974656d000000\n        /* \"#utility.yul\":1041:1059   */\n      0x44\n      dup3\n      add\n        /* \"#utility.yul\":1034:1093   */\n      mstore\n        /* \"#utility.yul\":1110:1128   */\n      0x64\n      add\n        /* \"EcommerceWithRefund.sol\":599:661  require(msg.sender == seller, \"Only seller can list the item\") */\n    tag_49:\n      mload(0x40)\n      dup1\n      swap2\n      sub\n      swap1\n      revert\n    tag_48:\n        /* \"EcommerceWithRefund.sol\":681:689  itemSold */\n      and(0xff, sload(0x03))\n        /* \"EcommerceWithRefund.sol\":680:689  !itemSold */\n      iszero\n        /* \"EcommerceWithRefund.sol\":672:711  require(!itemSold, \"Item already sold\") */\n      tag_51\n      jumpi\n      mload(0x40)\n      shl(0xe5, 0x461bcd)\n      dup2\n      mstore\n      0x04\n      add\n      tag_49\n      swap1\n      tag_53\n      jump\t// in\n    tag_51:\n        /* \"EcommerceWithRefund.sol\":722:727  price */\n      0x02\n        /* \"EcommerceWithRefund.sol\":722:736  price = _price */\n      dup2\n      swap1\n      sstore\n        /* \"EcommerceWithRefund.sol\":752:769  ItemListed(price) */\n      mload(0x40)\n        /* \"#utility.yul\":745:770   */\n      dup2\n      dup2\n      mstore\n        /* \"EcommerceWithRefund.sol\":752:769  ItemListed(price) */\n      0x77ff2ef08febd9f3c5e2bd5b310fa7ce50bfa6627428012ffc5ff4fd2b989463\n      swap1\n        /* \"#utility.yul\":733:735   */\n      0x20\n        /* \"#utility.yul\":718:736   */\n      add\n        /* \"EcommerceWithRefund.sol\":752:769  ItemListed(price) */\n      mload(0x40)\n      dup1\n      swap2\n      sub\n      swap1\n      log1\n        /* \"EcommerceWithRefund.sol\":545:777  function listItem(uint256 _price) external {... */\n      pop\n      jump\t// out\n        /* \"EcommerceWithRefund.sol\":1635:1948  function withdraw() external {... */\n    tag_28:\n        /* \"EcommerceWithRefund.sol\":1697:1703  seller */\n      and(sub(shl(0xa0, 0x01), 0x01), sload(0x00))\n        /* \"EcommerceWithRefund.sol\":1683:1693  msg.sender */\n      caller\n        /* \"EcommerceWithRefund.sol\":1683:1703  msg.sender == seller */\n      eq\n        /* \"EcommerceWithRefund.sol\":1675:1732  require(msg.sender == seller, \"Only seller can withdraw\") */\n      tag_56\n      jumpi\n      mload(0x40)\n      shl(0xe5, 0x461bcd)\n      dup2\n      mstore\n        /* \"#utility.yul\":1687:1689   */\n      0x20\n        /* \"EcommerceWithRefund.sol\":1675:1732  require(msg.sender == seller, \"Only seller can withdraw\") */\n      0x04\n      dup3\n      add\n        /* \"#utility.yul\":1669:1690   */\n      mstore\n        /* \"#utility.yul\":1726:1728   */\n      0x18\n        /* \"#utility.yul\":1706:1724   */\n      0x24\n      dup3\n      add\n        /* \"#utility.yul\":1699:1729   */\n      mstore\n      shl(0x40, 0x4f6e6c792073656c6c65722063616e207769746864726177)\n        /* \"#utility.yul\":1745:1763   */\n      0x44\n      dup3\n      add\n        /* \"#utility.yul\":1738:1792   */\n      mstore\n        /* \"#utility.yul\":1809:1827   */\n      0x64\n      add\n        /* \"EcommerceWithRefund.sol\":1675:1732  require(msg.sender == seller, \"Only seller can withdraw\") */\n      tag_49\n        /* \"#utility.yul\":1485:1833   */\n      jump\n        /* \"EcommerceWithRefund.sol\":1675:1732  require(msg.sender == seller, \"Only seller can withdraw\") */\n    tag_56:\n        /* \"EcommerceWithRefund.sol\":1751:1759  itemSold */\n      and(0xff, sload(0x03))\n        /* \"EcommerceWithRefund.sol\":1743:1777  require(itemSold, \"Item not sold\") */\n      tag_59\n      jumpi\n      mload(0x40)\n      shl(0xe5, 0x461bcd)\n      dup2\n      mstore\n        /* \"#utility.yul\":2040:2042   */\n      0x20\n        /* \"EcommerceWithRefund.sol\":1743:1777  require(itemSold, \"Item not sold\") */\n      0x04\n      dup3\n      add\n        /* \"#utility.yul\":2022:2043   */\n      mstore\n        /* \"#utility.yul\":2079:2081   */\n      0x0d\n        /* \"#utility.yul\":2059:2077   */\n      0x24\n      dup3\n      add\n        /* \"#utility.yul\":2052:2082   */\n      mstore\n      shl(0x9a, 0x125d195b481b9bdd081cdbdb19)\n        /* \"#utility.yul\":2098:2116   */\n      0x44\n      dup3\n      add\n        /* \"#utility.yul\":2091:2134   */\n      mstore\n        /* \"#utility.yul\":2151:2169   */\n      0x64\n      add\n        /* \"EcommerceWithRefund.sol\":1743:1777  require(itemSold, \"Item not sold\") */\n      tag_49\n        /* \"#utility.yul\":1838:2175   */\n      jump\n        /* \"EcommerceWithRefund.sol\":1743:1777  require(itemSold, \"Item not sold\") */\n    tag_59:\n        /* \"EcommerceWithRefund.sol\":1797:1805  refunded */\n      sload(0x03)\n      0x0100\n      swap1\n      div\n      0xff\n      and\n        /* \"EcommerceWithRefund.sol\":1796:1805  !refunded */\n      iszero\n        /* \"EcommerceWithRefund.sol\":1788:1844  require(!refunded, \"Refund issued, nothing to withdraw\") */\n      tag_62\n      jumpi\n      mload(0x40)\n      shl(0xe5, 0x461bcd)\n      dup2\n      mstore\n        /* \"#utility.yul\":2382:2384   */\n      0x20\n        /* \"EcommerceWithRefund.sol\":1788:1844  require(!refunded, \"Refund issued, nothing to withdraw\") */\n      0x04\n      dup3\n      add\n        /* \"#utility.yul\":2364:2385   */\n      mstore\n        /* \"#utility.yul\":2421:2423   */\n      0x22\n        /* \"#utility.yul\":2401:2419   */\n      0x24\n      dup3\n      add\n        /* \"#utility.yul\":2394:2424   */\n      mstore\n        /* \"#utility.yul\":2460:2494   */\n      0x526566756e64206973737565642c206e6f7468696e6720746f20776974686472\n        /* \"#utility.yul\":2440:2458   */\n      0x44\n      dup3\n      add\n        /* \"#utility.yul\":2433:2495   */\n      mstore\n      shl(0xf0, 0x6177)\n        /* \"#utility.yul\":2511:2529   */\n      0x64\n      dup3\n      add\n        /* \"#utility.yul\":2504:2536   */\n      mstore\n        /* \"#utility.yul\":2553:2572   */\n      0x84\n      add\n        /* \"EcommerceWithRefund.sol\":1788:1844  require(!refunded, \"Refund issued, nothing to withdraw\") */\n      tag_49\n        /* \"#utility.yul\":2180:2578   */\n      jump\n        /* \"EcommerceWithRefund.sol\":1788:1844  require(!refunded, \"Refund issued, nothing to withdraw\") */\n    tag_62:\n        /* \"EcommerceWithRefund.sol\":1857:1872  uint256 balance */\n      0x00\n        /* \"EcommerceWithRefund.sol\":1915:1921  seller */\n      dup1\n      sload\n        /* \"EcommerceWithRefund.sol\":1907:1940  payable(seller).transfer(balance) */\n      mload(0x40)\n        /* \"EcommerceWithRefund.sol\":1875:1896  address(this).balance */\n      selfbalance\n      swap3\n      sub(shl(0xa0, 0x01), 0x01)\n        /* \"EcommerceWithRefund.sol\":1915:1921  seller */\n      swap1\n      swap3\n      and\n      swap2\n        /* \"EcommerceWithRefund.sol\":1907:1940  payable(seller).transfer(balance) */\n      dup4\n      iszero\n      0x08fc\n      mul\n      swap2\n        /* \"EcommerceWithRefund.sol\":1875:1896  address(this).balance */\n      dup5\n      swap2\n        /* \"EcommerceWithRefund.sol\":1907:1940  payable(seller).transfer(balance) */\n      dup2\n        /* \"EcommerceWithRefund.sol\":1857:1872  uint256 balance */\n      dup2\n        /* \"EcommerceWithRefund.sol\":1907:1940  payable(seller).transfer(balance) */\n      dup2\n        /* \"EcommerceWithRefund.sol\":1875:1896  address(this).balance */\n      dup6\n        /* \"EcommerceWithRefund.sol\":1915:1921  seller */\n      dup9\n        /* \"EcommerceWithRefund.sol\":1907:1940  payable(seller).transfer(balance) */\n      dup9\n      call\n      swap4\n      pop\n      pop\n      pop\n      pop\n      iszero\n      dup1\n      iszero\n      tag_66\n      jumpi\n      returndatacopy(0x00, 0x00, returndatasize)\n      revert(0x00, returndatasize)\n    tag_66:\n      pop\n        /* \"EcommerceWithRefund.sol\":1664:1948  {... */\n      pop\n        /* \"EcommerceWithRefund.sol\":1635:1948  function withdraw() external {... */\n      jump\t// out\n        /* \"EcommerceWithRefund.sol\":1153:1563  function refund() external {... */\n    tag_35:\n        /* \"EcommerceWithRefund.sol\":1213:1219  seller */\n      and(sub(shl(0xa0, 0x01), 0x01), sload(0x00))\n        /* \"EcommerceWithRefund.sol\":1199:1209  msg.sender */\n      caller\n        /* \"EcommerceWithRefund.sol\":1199:1219  msg.sender == seller */\n      eq\n        /* \"EcommerceWithRefund.sol\":1191:1252  require(msg.sender == seller, \"Only seller can issue refund\") */\n      tag_68\n      jumpi\n      mload(0x40)\n      shl(0xe5, 0x461bcd)\n      dup2\n      mstore\n        /* \"#utility.yul\":2785:2787   */\n      0x20\n        /* \"EcommerceWithRefund.sol\":1191:1252  require(msg.sender == seller, \"Only seller can issue refund\") */\n      0x04\n      dup3\n      add\n        /* \"#utility.yul\":2767:2788   */\n      mstore\n        /* \"#utility.yul\":2824:2826   */\n      0x1c\n        /* \"#utility.yul\":2804:2822   */\n      0x24\n      dup3\n      add\n        /* \"#utility.yul\":2797:2827   */\n      mstore\n        /* \"#utility.yul\":2863:2893   */\n      0x4f6e6c792073656c6c65722063616e20697373756520726566756e6400000000\n        /* \"#utility.yul\":2843:2861   */\n      0x44\n      dup3\n      add\n        /* \"#utility.yul\":2836:2894   */\n      mstore\n        /* \"#utility.yul\":2911:2929   */\n      0x64\n      add\n        /* \"EcommerceWithRefund.sol\":1191:1252  require(msg.sender == seller, \"Only seller can issue refund\") */\n      tag_49\n        /* \"#utility.yul\":2583:2935   */\n      jump\n        /* \"EcommerceWithRefund.sol\":1191:1252  require(msg.sender == seller, \"Only seller can issue refund\") */\n    tag_68:\n        /* \"EcommerceWithRefund.sol\":1271:1279  itemSold */\n      and(0xff, sload(0x03))\n        /* \"EcommerceWithRefund.sol\":1263:1301  require(itemSold, \"Item not sold yet\") */\n      tag_71\n      jumpi\n      mload(0x40)\n      shl(0xe5, 0x461bcd)\n      dup2\n      mstore\n        /* \"#utility.yul\":3142:3144   */\n      0x20\n        /* \"EcommerceWithRefund.sol\":1263:1301  require(itemSold, \"Item not sold yet\") */\n      0x04\n      dup3\n      add\n        /* \"#utility.yul\":3124:3145   */\n      mstore\n        /* \"#utility.yul\":3181:3183   */\n      0x11\n        /* \"#utility.yul\":3161:3179   */\n      0x24\n      dup3\n      add\n        /* \"#utility.yul\":3154:3184   */\n      mstore\n      shl(0x7a, 0x125d195b481b9bdd081cdbdb19081e595d)\n        /* \"#utility.yul\":3200:3218   */\n      0x44\n      dup3\n      add\n        /* \"#utility.yul\":3193:3240   */\n      mstore\n        /* \"#utility.yul\":3257:3275   */\n      0x64\n      add\n        /* \"EcommerceWithRefund.sol\":1263:1301  require(itemSold, \"Item not sold yet\") */\n      tag_49\n        /* \"#utility.yul\":2940:3281   */\n      jump\n        /* \"EcommerceWithRefund.sol\":1263:1301  require(itemSold, \"Item not sold yet\") */\n    tag_71:\n        /* \"EcommerceWithRefund.sol\":1321:1329  refunded */\n      sload(0x03)\n      0x0100\n      swap1\n      div\n      0xff\n      and\n        /* \"EcommerceWithRefund.sol\":1320:1329  !refunded */\n      iszero\n        /* \"EcommerceWithRefund.sol\":1312:1355  require(!refunded, \"Refund already issued\") */\n      tag_74\n      jumpi\n      mload(0x40)\n      shl(0xe5, 0x461bcd)\n      dup2\n      mstore\n        /* \"#utility.yul\":3488:3490   */\n      0x20\n        /* \"EcommerceWithRefund.sol\":1312:1355  require(!refunded, \"Refund already issued\") */\n      0x04\n      dup3\n      add\n        /* \"#utility.yul\":3470:3491   */\n      mstore\n        /* \"#utility.yul\":3527:3529   */\n      0x15\n        /* \"#utility.yul\":3507:3525   */\n      0x24\n      dup3\n      add\n        /* \"#utility.yul\":3500:3530   */\n      mstore\n      shl(0x5a, 0x1499599d5b9908185b1c9958591e481a5cdcdd5959)\n        /* \"#utility.yul\":3546:3564   */\n      0x44\n      dup3\n      add\n        /* \"#utility.yul\":3539:3590   */\n      mstore\n        /* \"#utility.yul\":3607:3625   */\n      0x64\n      add\n        /* \"EcommerceWithRefund.sol\":1312:1355  require(!refunded, \"Refund already issued\") */\n      tag_49\n        /* \"#utility.yul\":3286:3631   */\n      jump\n        /* \"EcommerceWithRefund.sol\":1312:1355  require(!refunded, \"Refund already issued\") */\n    tag_74:\n        /* \"EcommerceWithRefund.sol\":1376:1384  refunded */\n      0x03\n        /* \"EcommerceWithRefund.sol\":1376:1391  refunded = true */\n      dup1\n      sload\n      not(0xffff)\n        /* \"EcommerceWithRefund.sol\":1402:1418  itemSold = false */\n      and\n        /* \"EcommerceWithRefund.sol\":1376:1391  refunded = true */\n      0x0100\n        /* \"EcommerceWithRefund.sol\":1402:1418  itemSold = false */\n      or\n      swap1\n      sstore\n        /* \"EcommerceWithRefund.sol\":1376:1391  refunded = true */\n      0x00\n        /* \"EcommerceWithRefund.sol\":1429:1434  price */\n      0x02\n        /* \"EcommerceWithRefund.sol\":1429:1438  price = 0 */\n      dup2\n      swap1\n      sstore\n        /* \"EcommerceWithRefund.sol\":1387:1391  true */\n      0x01\n        /* \"EcommerceWithRefund.sol\":1459:1464  buyer */\n      sload\n        /* \"EcommerceWithRefund.sol\":1451:1497  payable(buyer).transfer(address(this).balance) */\n      mload(0x40)\n      sub(shl(0xa0, 0x01), 0x01)\n        /* \"EcommerceWithRefund.sol\":1459:1464  buyer */\n      swap1\n      swap2\n      and\n      swap2\n        /* \"EcommerceWithRefund.sol\":1475:1496  address(this).balance */\n      selfbalance\n        /* \"EcommerceWithRefund.sol\":1451:1497  payable(buyer).transfer(address(this).balance) */\n      dup1\n      iszero\n      0x08fc\n      mul\n      swap3\n        /* \"EcommerceWithRefund.sol\":1475:1496  address(this).balance */\n      swap1\n      swap2\n        /* \"EcommerceWithRefund.sol\":1451:1497  payable(buyer).transfer(address(this).balance) */\n      dup2\n        /* \"EcommerceWithRefund.sol\":1376:1391  refunded = true */\n      dup2\n        /* \"EcommerceWithRefund.sol\":1451:1497  payable(buyer).transfer(address(this).balance) */\n      dup2\n        /* \"EcommerceWithRefund.sol\":1475:1496  address(this).balance */\n      dup6\n        /* \"EcommerceWithRefund.sol\":1459:1464  buyer */\n      dup9\n        /* \"EcommerceWithRefund.sol\":1451:1497  payable(buyer).transfer(address(this).balance) */\n      dup9\n      call\n      swap4\n      pop\n      pop\n      pop\n      pop\n      iszero\n      dup1\n      iszero\n      tag_78\n      jumpi\n      returndatacopy(0x00, 0x00, returndatasize)\n      revert(0x00, returndatasize)\n    tag_78:\n      pop\n        /* \"EcommerceWithRefund.sol\":1526:1531  buyer */\n      sload(0x01)\n        /* \"EcommerceWithRefund.sol\":1513:1555  RefundIssued(buyer, address(this).balance) */\n      0x40\n      dup1\n      mload\n      sub(shl(0xa0, 0x01), 0x01)\n        /* \"EcommerceWithRefund.sol\":1526:1531  buyer */\n      swap1\n      swap3\n      and\n        /* \"#utility.yul\":3810:3861   */\n      dup3\n      mstore\n        /* \"EcommerceWithRefund.sol\":1533:1554  address(this).balance */\n      selfbalance\n        /* \"#utility.yul\":3892:3894   */\n      0x20\n        /* \"#utility.yul\":3877:3895   */\n      dup4\n      add\n        /* \"#utility.yul\":3870:3904   */\n      mstore\n        /* \"EcommerceWithRefund.sol\":1513:1555  RefundIssued(buyer, address(this).balance) */\n      0xa171b6942063c6f2800ce40a780edce37baa2b618571b11eedd1e69e626e7d76\n      swap2\n        /* \"#utility.yul\":3783:3801   */\n      add\n        /* \"EcommerceWithRefund.sol\":1513:1555  RefundIssued(buyer, address(this).balance) */\n    tag_79:\n      mload(0x40)\n      dup1\n      swap2\n      sub\n      swap1\n      log1\n        /* \"EcommerceWithRefund.sol\":1153:1563  function refund() external {... */\n      jump\t// out\n        /* \"EcommerceWithRefund.sol\":850:1112  function purchase() external payable {... */\n    tag_37:\n        /* \"EcommerceWithRefund.sol\":907:915  itemSold */\n      and(0xff, sload(0x03))\n        /* \"EcommerceWithRefund.sol\":906:915  !itemSold */\n      iszero\n        /* \"EcommerceWithRefund.sol\":898:937  require(!itemSold, \"Item already sold\") */\n      tag_82\n      jumpi\n      mload(0x40)\n      shl(0xe5, 0x461bcd)\n      dup2\n      mstore\n      0x04\n      add\n      tag_49\n      swap1\n      tag_53\n      jump\t// in\n    tag_82:\n        /* \"EcommerceWithRefund.sol\":969:974  price */\n      sload(0x02)\n        /* \"EcommerceWithRefund.sol\":956:965  msg.value */\n      callvalue\n        /* \"EcommerceWithRefund.sol\":956:974  msg.value == price */\n      eq\n        /* \"EcommerceWithRefund.sol\":948:1002  require(msg.value == price, \"Please send exact price\") */\n      tag_84\n      jumpi\n      mload(0x40)\n      shl(0xe5, 0x461bcd)\n      dup2\n      mstore\n        /* \"#utility.yul\":4117:4119   */\n      0x20\n        /* \"EcommerceWithRefund.sol\":948:1002  require(msg.value == price, \"Please send exact price\") */\n      0x04\n      dup3\n      add\n        /* \"#utility.yul\":4099:4120   */\n      mstore\n        /* \"#utility.yul\":4156:4158   */\n      0x17\n        /* \"#utility.yul\":4136:4154   */\n      0x24\n      dup3\n      add\n        /* \"#utility.yul\":4129:4159   */\n      mstore\n      shl(0x48, 0x506c656173652073656e64206578616374207072696365)\n        /* \"#utility.yul\":4175:4193   */\n      0x44\n      dup3\n      add\n        /* \"#utility.yul\":4168:4221   */\n      mstore\n        /* \"#utility.yul\":4238:4256   */\n      0x64\n      add\n        /* \"EcommerceWithRefund.sol\":948:1002  require(msg.value == price, \"Please send exact price\") */\n      tag_49\n        /* \"#utility.yul\":3915:4262   */\n      jump\n        /* \"EcommerceWithRefund.sol\":948:1002  require(msg.value == price, \"Please send exact price\") */\n    tag_84:\n        /* \"EcommerceWithRefund.sol\":1013:1018  buyer */\n      0x01\n        /* \"EcommerceWithRefund.sol\":1013:1031  buyer = msg.sender */\n      dup1\n      sload\n      not(sub(shl(0xa0, 0x01), 0x01))\n      and\n        /* \"EcommerceWithRefund.sol\":1021:1031  msg.sender */\n      caller\n        /* \"EcommerceWithRefund.sol\":1013:1031  buyer = msg.sender */\n      swap1\n      dup2\n      or\n      dup3\n      sstore\n        /* \"EcommerceWithRefund.sol\":1042:1050  itemSold */\n      0x03\n        /* \"EcommerceWithRefund.sol\":1042:1057  itemSold = true */\n      dup1\n      sload\n      not(0xff)\n      and\n      swap1\n      swap3\n      or\n      swap1\n      swap2\n      sstore\n        /* \"EcommerceWithRefund.sol\":1073:1104  ItemPurchased(buyer, msg.value) */\n      0x40\n      dup1\n      mload\n        /* \"#utility.yul\":3810:3861   */\n      swap2\n      dup3\n      mstore\n        /* \"EcommerceWithRefund.sol\":1094:1103  msg.value */\n      callvalue\n        /* \"#utility.yul\":3892:3894   */\n      0x20\n        /* \"#utility.yul\":3877:3895   */\n      dup4\n      add\n        /* \"#utility.yul\":3870:3904   */\n      mstore\n        /* \"EcommerceWithRefund.sol\":1073:1104  ItemPurchased(buyer, msg.value) */\n      0x792fe07c0f3ce4ef42df79c4a2b07925168cddbaabf7a7ef1351f027a3760313\n      swap2\n        /* \"#utility.yul\":3783:3801   */\n      add\n        /* \"EcommerceWithRefund.sol\":1073:1104  ItemPurchased(buyer, msg.value) */\n      tag_79\n        /* \"#utility.yul\":3636:3910   */\n      jump\n        /* \"#utility.yul\":414:594   */\n    tag_24:\n        /* \"#utility.yul\":473:479   */\n      0x00\n        /* \"#utility.yul\":526:528   */\n      0x20\n        /* \"#utility.yul\":514:523   */\n      dup3\n        /* \"#utility.yul\":505:512   */\n      dup5\n        /* \"#utility.yul\":501:524   */\n      sub\n        /* \"#utility.yul\":497:529   */\n      slt\n        /* \"#utility.yul\":494:546   */\n      iszero\n      tag_92\n      jumpi\n        /* \"#utility.yul\":542:543   */\n      0x00\n        /* \"#utility.yul\":539:540   */\n      0x00\n        /* \"#utility.yul\":532:544   */\n      revert\n        /* \"#utility.yul\":494:546   */\n    tag_92:\n      pop\n        /* \"#utility.yul\":565:588   */\n      calldataload\n      swap2\n        /* \"#utility.yul\":414:594   */\n      swap1\n      pop\n      jump\t// out\n        /* \"#utility.yul\":1139:1480   */\n    tag_53:\n        /* \"#utility.yul\":1341:1343   */\n      0x20\n        /* \"#utility.yul\":1323:1344   */\n      dup1\n      dup3\n      mstore\n        /* \"#utility.yul\":1380:1382   */\n      0x11\n        /* \"#utility.yul\":1360:1378   */\n      swap1\n      dup3\n      add\n        /* \"#utility.yul\":1353:1383   */\n      mstore\n      shl(0x7a, 0x125d195b48185b1c9958591e481cdbdb19)\n        /* \"#utility.yul\":1414:1416   */\n      0x40\n        /* \"#utility.yul\":1399:1417   */\n      dup3\n      add\n        /* \"#utility.yul\":1392:1439   */\n      mstore\n        /* \"#utility.yul\":1471:1473   */\n      0x60\n        /* \"#utility.yul\":1456:1474   */\n      add\n      swap1\n        /* \"#utility.yul\":1139:1480   */\n      jump\t// out\n\n    auxdata: 0xa264697066735822122024459fb1004551f3f60d3b746530d8b9d7663b58e2e5857c578e35c127bf883664736f6c634300081e0033\n}\n",
				"bytecode": {
					"linkReferences": {},
					"object": "6080604052348015600e575f5ffd5b505f80546001600160a01b031916331790556003805461ffff19169055610640806100385f395ff3fe608060405260043610610075575f3560e01c806308551a531461007957806312f53950146100b45780632ce38190146100e25780633ccfd60b14610103578063438e897a14610117578063590e1ae31461013057806364edfbf0146101445780637150d8ae1461014c578063a035b1fe1461016b575b5f5ffd5b348015610084575f5ffd5b505f54610097906001600160a01b031681565b6040516001600160a01b0390911681526020015b60405180910390f35b3480156100bf575f5ffd5b506003546100d290610100900460ff1681565b60405190151581526020016100ab565b3480156100ed575f5ffd5b506101016100fc3660046105c8565b61018e565b005b34801561010e575f5ffd5b5061010161024a565b348015610122575f5ffd5b506003546100d29060ff1681565b34801561013b575f5ffd5b5061010161037f565b610101610503565b348015610157575f5ffd5b50600154610097906001600160a01b031681565b348015610176575f5ffd5b5061018060025481565b6040519081526020016100ab565b5f546001600160a01b031633146101ec5760405162461bcd60e51b815260206004820152601d60248201527f4f6e6c792073656c6c65722063616e206c69737420746865206974656d00000060448201526064015b60405180910390fd5b60035460ff161561020f5760405162461bcd60e51b81526004016101e3906105df565b60028190556040518181527f77ff2ef08febd9f3c5e2bd5b310fa7ce50bfa6627428012ffc5ff4fd2b9894639060200160405180910390a150565b5f546001600160a01b0316331461029e5760405162461bcd60e51b81526020600482015260186024820152774f6e6c792073656c6c65722063616e20776974686472617760401b60448201526064016101e3565b60035460ff166102e05760405162461bcd60e51b815260206004820152600d60248201526c125d195b481b9bdd081cdbdb19609a1b60448201526064016101e3565b600354610100900460ff16156103435760405162461bcd60e51b815260206004820152602260248201527f526566756e64206973737565642c206e6f7468696e6720746f20776974686472604482015261617760f01b60648201526084016101e3565b5f805460405147926001600160a01b039092169183156108fc02918491818181858888f1935050505015801561037b573d5f5f3e3d5ffd5b5050565b5f546001600160a01b031633146103d85760405162461bcd60e51b815260206004820152601c60248201527f4f6e6c792073656c6c65722063616e20697373756520726566756e640000000060448201526064016101e3565b60035460ff1661041e5760405162461bcd60e51b8152602060048201526011602482015270125d195b481b9bdd081cdbdb19081e595d607a1b60448201526064016101e3565b600354610100900460ff161561046e5760405162461bcd60e51b81526020600482015260156024820152741499599d5b9908185b1c9958591e481a5cdcdd5959605a1b60448201526064016101e3565b6003805461ffff19166101001790555f60028190556001546040516001600160a01b03909116914780156108fc02929091818181858888f193505050501580156104ba573d5f5f3e3d5ffd5b50600154604080516001600160a01b0390921682524760208301527fa171b6942063c6f2800ce40a780edce37baa2b618571b11eedd1e69e626e7d7691015b60405180910390a1565b60035460ff16156105265760405162461bcd60e51b81526004016101e3906105df565b60025434146105715760405162461bcd60e51b8152602060048201526017602482015276506c656173652073656e6420657861637420707269636560481b60448201526064016101e3565b600180546001600160a01b0319163390811782556003805460ff1916909217909155604080519182523460208301527f792fe07c0f3ce4ef42df79c4a2b07925168cddbaabf7a7ef1351f027a376031391016104f9565b5f602082840312156105d8575f5ffd5b5035919050565b602080825260119082015270125d195b48185b1c9958591e481cdbdb19607a1b60408201526060019056fea264697066735822122024459fb1004551f3f60d3b746530d8b9d7663b58e2e5857c578e35c127bf883664736f6c634300081e0033",
					"opcodes": "PUSH1 0x80 PUSH1 0x40 MSTORE CALLVALUE DUP1 ISZERO PUSH1 0xE JUMPI PUSH0 PUSH0 REVERT JUMPDEST POP PUSH0 DUP1 SLOAD PUSH1 0x1 PUSH1 0x1 PUSH1 0xA0 SHL SUB NOT AND CALLER OR SWAP1 SSTORE PUSH1 0x3 DUP1 SLOAD PUSH2 0xFFFF NOT AND SWAP1 SSTORE PUSH2 0x640 DUP1 PUSH2 0x38 PUSH0 CODECOPY PUSH0 RETURN INVALID PUSH1 0x80 PUSH1 0x40 MSTORE PUSH1 0x4 CALLDATASIZE LT PUSH2 0x75 JUMPI PUSH0 CALLDATALOAD PUSH1 0xE0 SHR DUP1 PUSH4 0x8551A53 EQ PUSH2 0x79 JUMPI DUP1 PUSH4 0x12F53950 EQ PUSH2 0xB4 JUMPI DUP1 PUSH4 0x2CE38190 EQ PUSH2 0xE2 JUMPI DUP1 PUSH4 0x3CCFD60B EQ PUSH2 0x103 JUMPI DUP1 PUSH4 0x438E897A EQ PUSH2 0x117 JUMPI DUP1 PUSH4 0x590E1AE3 EQ PUSH2 0x130 JUMPI DUP1 PUSH4 0x64EDFBF0 EQ PUSH2 0x144 JUMPI DUP1 PUSH4 0x7150D8AE EQ PUSH2 0x14C JUMPI DUP1 PUSH4 0xA035B1FE EQ PUSH2 0x16B JUMPI JUMPDEST PUSH0 PUSH0 REVERT JUMPDEST CALLVALUE DUP1 ISZERO PUSH2 0x84 JUMPI PUSH0 PUSH0 REVERT JUMPDEST POP PUSH0 SLOAD PUSH2 0x97 SWAP1 PUSH1 0x1 PUSH1 0x1 PUSH1 0xA0 SHL SUB AND DUP2 JUMP JUMPDEST PUSH1 0x40 MLOAD PUSH1 0x1 PUSH1 0x1 PUSH1 0xA0 SHL SUB SWAP1 SWAP2 AND DUP2 MSTORE PUSH1 0x20 ADD JUMPDEST PUSH1 0x40 MLOAD DUP1 SWAP2 SUB SWAP1 RETURN JUMPDEST CALLVALUE DUP1 ISZERO PUSH2 0xBF JUMPI PUSH0 PUSH0 REVERT JUMPDEST POP PUSH1 0x3 SLOAD PUSH2 0xD2 SWAP1 PUSH2 0x100 SWAP1 DIV PUSH1 0xFF AND DUP2 JUMP JUMPDEST PUSH1 0x40 MLOAD SWAP1 ISZERO ISZERO DUP2 MSTORE PUSH1 0x20 ADD PUSH2 0xAB JUMP JUMPDEST CALLVALUE DUP1 ISZERO PUSH2 0xED JUMPI PUSH0 PUSH0 REVERT JUMPDEST POP PUSH2 0x101 PUSH2 0xFC CALLDATASIZE PUSH1 0x4 PUSH2 0x5C8 JUMP JUMPDEST PUSH2 0x18E JUMP JUMPDEST STOP JUMPDEST CALLVALUE DUP1 ISZERO PUSH2 0x10E JUMPI PUSH0 PUSH0 REVERT JUMPDEST POP PUSH2 0x101 PUSH2 0x24A JUMP JUMPDEST CALLVALUE DUP1 ISZERO PUSH2 0x122 JUMPI PUSH0 PUSH0 REVERT JUMPDEST POP PUSH1 0x3 SLOAD PUSH2 0xD2 SWAP1 PUSH1 0xFF AND DUP2 JUMP JUMPDEST CALLVALUE DUP1 ISZERO PUSH2 0x13B JUMPI PUSH0 PUSH0 REVERT JUMPDEST POP PUSH2 0x101 PUSH2 0x37F JUMP JUMPDEST PUSH2 0x101 PUSH2 0x503 JUMP JUMPDEST CALLVALUE DUP1 ISZERO PUSH2 0x157 JUMPI PUSH0 PUSH0 REVERT JUMPDEST POP PUSH1 0x1 SLOAD PUSH2 0x97 SWAP1 PUSH1 0x1 PUSH1 0x1 PUSH1 0xA0 SHL SUB AND DUP2 JUMP JUMPDEST CALLVALUE DUP1 ISZERO PUSH2 0x176 JUMPI PUSH0 PUSH0 REVERT JUMPDEST POP PUSH2 0x180 PUSH1 0x2 SLOAD DUP2 JUMP JUMPDEST PUSH1 0x40 MLOAD SWAP1 DUP2 MSTORE PUSH1 0x20 ADD PUSH2 0xAB JUMP JUMPDEST PUSH0 SLOAD PUSH1 0x1 PUSH1 0x1 PUSH1 0xA0 SHL SUB AND CALLER EQ PUSH2 0x1EC JUMPI PUSH1 0x40 MLOAD PUSH3 0x461BCD PUSH1 0xE5 SHL DUP2 MSTORE PUSH1 0x20 PUSH1 0x4 DUP3 ADD MSTORE PUSH1 0x1D PUSH1 0x24 DUP3 ADD MSTORE PUSH32 0x4F6E6C792073656C6C65722063616E206C69737420746865206974656D000000 PUSH1 0x44 DUP3 ADD MSTORE PUSH1 0x64 ADD JUMPDEST PUSH1 0x40 MLOAD DUP1 SWAP2 SUB SWAP1 REVERT JUMPDEST PUSH1 0x3 SLOAD PUSH1 0xFF AND ISZERO PUSH2 0x20F JUMPI PUSH1 0x40 MLOAD PUSH3 0x461BCD PUSH1 0xE5 SHL DUP2 MSTORE PUSH1 0x4 ADD PUSH2 0x1E3 SWAP1 PUSH2 0x5DF JUMP JUMPDEST PUSH1 0x2 DUP2 SWAP1 SSTORE PUSH1 0x40 MLOAD DUP2 DUP2 MSTORE PUSH32 0x77FF2EF08FEBD9F3C5E2BD5B310FA7CE50BFA6627428012FFC5FF4FD2B989463 SWAP1 PUSH1 0x20 ADD PUSH1 0x40 MLOAD DUP1 SWAP2 SUB SWAP1 LOG1 POP JUMP JUMPDEST PUSH0 SLOAD PUSH1 0x1 PUSH1 0x1 PUSH1 0xA0 SHL SUB AND CALLER EQ PUSH2 0x29E JUMPI PUSH1 0x40 MLOAD PUSH3 0x461BCD PUSH1 0xE5 SHL DUP2 MSTORE PUSH1 0x20 PUSH1 0x4 DUP3 ADD MSTORE PUSH1 0x18 PUSH1 0x24 DUP3 ADD MSTORE PUSH24 0x4F6E6C792073656C6C65722063616E207769746864726177 PUSH1 0x40 SHL PUSH1 0x44 DUP3 ADD MSTORE PUSH1 0x64 ADD PUSH2 0x1E3 JUMP JUMPDEST PUSH1 0x3 SLOAD PUSH1 0xFF AND PUSH2 0x2E0 JUMPI PUSH1 0x40 MLOAD PUSH3 0x461BCD PUSH1 0xE5 SHL DUP2 MSTORE PUSH1 0x20 PUSH1 0x4 DUP3 ADD MSTORE PUSH1 0xD PUSH1 0x24 DUP3 ADD MSTORE PUSH13 0x125D195B481B9BDD081CDBDB19 PUSH1 0x9A SHL PUSH1 0x44 DUP3 ADD MSTORE PUSH1 0x64 ADD PUSH2 0x1E3 JUMP JUMPDEST PUSH1 0x3 SLOAD PUSH2 0x100 SWAP1 DIV PUSH1 0xFF AND ISZERO PUSH2 0x343 JUMPI PUSH1 0x40 MLOAD PUSH3 0x461BCD PUSH1 0xE5 SHL DUP2 MSTORE PUSH1 0x20 PUSH1 0x4 DUP3 ADD MSTORE PUSH1 0x22 PUSH1 0x24 DUP3 ADD MSTORE PUSH32 0x526566756E64206973737565642C206E6F7468696E6720746F20776974686472 PUSH1 0x44 DUP3 ADD MSTORE PUSH2 0x6177 PUSH1 0xF0 SHL PUSH1 0x64 DUP3 ADD MSTORE PUSH1 0x84 ADD PUSH2 0x1E3 JUMP JUMPDEST PUSH0 DUP1 SLOAD PUSH1 0x40 MLOAD SELFBALANCE SWAP3 PUSH1 0x1 PUSH1 0x1 PUSH1 0xA0 SHL SUB SWAP1 SWAP3 AND SWAP2 DUP4 ISZERO PUSH2 0x8FC MUL SWAP2 DUP5 SWAP2 DUP2 DUP2 DUP2 DUP6 DUP9 DUP9 CALL SWAP4 POP POP POP POP ISZERO DUP1 ISZERO PUSH2 0x37B JUMPI RETURNDATASIZE PUSH0 PUSH0 RETURNDATACOPY RETURNDATASIZE PUSH0 REVERT JUMPDEST POP POP JUMP JUMPDEST PUSH0 SLOAD PUSH1 0x1 PUSH1 0x1 PUSH1 0xA0 SHL SUB AND CALLER EQ PUSH2 0x3D8 JUMPI PUSH1 0x40 MLOAD PUSH3 0x461BCD PUSH1 0xE5 SHL DUP2 MSTORE PUSH1 0x20 PUSH1 0x4 DUP3 ADD MSTORE PUSH1 0x1C PUSH1 0x24 DUP3 ADD MSTORE PUSH32 0x4F6E6C792073656C6C65722063616E20697373756520726566756E6400000000 PUSH1 0x44 DUP3 ADD MSTORE PUSH1 0x64 ADD PUSH2 0x1E3 JUMP JUMPDEST PUSH1 0x3 SLOAD PUSH1 0xFF AND PUSH2 0x41E JUMPI PUSH1 0x40 MLOAD PUSH3 0x461BCD PUSH1 0xE5 SHL DUP2 MSTORE PUSH1 0x20 PUSH1 0x4 DUP3 ADD MSTORE PUSH1 0x11 PUSH1 0x24 DUP3 ADD MSTORE PUSH17 0x125D195B481B9BDD081CDBDB19081E595D PUSH1 0x7A SHL PUSH1 0x44 DUP3 ADD MSTORE PUSH1 0x64 ADD PUSH2 0x1E3 JUMP JUMPDEST PUSH1 0x3 SLOAD PUSH2 0x100 SWAP1 DIV PUSH1 0xFF AND ISZERO PUSH2 0x46E JUMPI PUSH1 0x40 MLOAD PUSH3 0x461BCD PUSH1 0xE5 SHL DUP2 MSTORE PUSH1 0x20 PUSH1 0x4 DUP3 ADD MSTORE PUSH1 0x15 PUSH1 0x24 DUP3 ADD MSTORE PUSH21 0x1499599D5B9908185B1C9958591E481A5CDCDD5959 PUSH1 0x5A SHL PUSH1 0x44 DUP3 ADD MSTORE PUSH1 0x64 ADD PUSH2 0x1E3 JUMP JUMPDEST PUSH1 0x3 DUP1 SLOAD PUSH2 0xFFFF NOT AND PUSH2 0x100 OR SWAP1 SSTORE PUSH0 PUSH1 0x2 DUP2 SWAP1 SSTORE PUSH1 0x1 SLOAD PUSH1 0x40 MLOAD PUSH1 0x1 PUSH1 0x1 PUSH1 0xA0 SHL SUB SWAP1 SWAP2 AND SWAP2 SELFBALANCE DUP1 ISZERO PUSH2 0x8FC MUL SWAP3 SWAP1 SWAP2 DUP2 DUP2 DUP2 DUP6 DUP9 DUP9 CALL SWAP4 POP POP POP POP ISZERO DUP1 ISZERO PUSH2 0x4BA JUMPI RETURNDATASIZE PUSH0 PUSH0 RETURNDATACOPY RETURNDATASIZE PUSH0 REVERT JUMPDEST POP PUSH1 0x1 SLOAD PUSH1 0x40 DUP1 MLOAD PUSH1 0x1 PUSH1 0x1 PUSH1 0xA0 SHL SUB SWAP1 SWAP3 AND DUP3 MSTORE SELFBALANCE PUSH1 0x20 DUP4 ADD MSTORE PUSH32 0xA171B6942063C6F2800CE40A780EDCE37BAA2B618571B11EEDD1E69E626E7D76 SWAP2 ADD JUMPDEST PUSH1 0x40 MLOAD DUP1 SWAP2 SUB SWAP1 LOG1 JUMP JUMPDEST PUSH1 0x3 SLOAD PUSH1 0xFF AND ISZERO PUSH2 0x526 JUMPI PUSH1 0x40 MLOAD PUSH3 0x461BCD PUSH1 0xE5 SHL DUP2 MSTORE PUSH1 0x4 ADD PUSH2 0x1E3 SWAP1 PUSH2 0x5DF JUMP JUMPDEST PUSH1 0x2 SLOAD CALLVALUE EQ PUSH2 0x571 JUMPI PUSH1 0x40 MLOAD PUSH3 0x461BCD PUSH1 0xE5 SHL DUP2 MSTORE PUSH1 0x20 PUSH1 0x4 DUP3 ADD MSTORE PUSH1 0x17 PUSH1 0x24 DUP3 ADD MSTORE PUSH23 0x506C656173652073656E64206578616374207072696365 PUSH1 0x48 SHL PUSH1 0x44 DUP3 ADD MSTORE PUSH1 0x64 ADD PUSH2 0x1E3 JUMP JUMPDEST PUSH1 0x1 DUP1 SLOAD PUSH1 0x1 PUSH1 0x1 PUSH1 0xA0 SHL SUB NOT AND CALLER SWAP1 DUP2 OR DUP3 SSTORE PUSH1 0x3 DUP1 SLOAD PUSH1 0xFF NOT AND SWAP1 SWAP3 OR SWAP1 SWAP2 SSTORE PUSH1 0x40 DUP1 MLOAD SWAP2 DUP3 MSTORE CALLVALUE PUSH1 0x20 DUP4 ADD MSTORE PUSH32 0x792FE07C0F3CE4EF42DF79C4A2B07925168CDDBAABF7A7EF1351F027A3760313 SWAP2 ADD PUSH2 0x4F9 JUMP JUMPDEST PUSH0 PUSH1 0x20 DUP3 DUP5 SUB SLT ISZERO PUSH2 0x5D8 JUMPI PUSH0 PUSH0 REVERT JUMPDEST POP CALLDATALOAD SWAP2 SWAP1 POP JUMP JUMPDEST PUSH1 0x20 DUP1 DUP3 MSTORE PUSH1 0x11 SWAP1 DUP3 ADD MSTORE PUSH17 0x125D195B48185B1C9958591E481CDBDB19 PUSH1 0x7A SHL PUSH1 0x40 DUP3 ADD MSTORE PUSH1 0x60 ADD SWAP1 JUMP INVALID LOG2 PUSH5 0x6970667358 0x22 SLT KECCAK256 0x24 GASLIMIT SWAP16 0xB1 STOP GASLIMIT MLOAD RETURN 0xF6 0xD EXTCODESIZE PUSH21 0x6530D8B9D7663B58E2E5857C578E35C127BF883664 PUSH20 0x6F6C634300081E00330000000000000000000000 "
				},
				"gasEstimates": {
					"creation": {
						"codeDepositCost": "320000",
						"executionCost": "48805",
						"totalCost": "368805"
					},
					"external": {
						"buyer()": "2457",
						"itemSold()": "2375",
						"listItem(uint256)": "27674",
						"price()": "2448",
						"purchase()": "54290",
						"refund()": "infinite",
						"refunded()": "2320",
						"seller()": "2302",
						"withdraw()": "infinite"
					}
				},
				"methodIdentifiers": {
					"buyer()": "7150d8ae",
					"itemSold()": "438e897a",
					"listItem(uint256)": "2ce38190",
					"price()": "a035b1fe",
					"purchase()": "64edfbf0",
					"refund()": "590e1ae3",
					"refunded()": "12f53950",
					"seller()": "08551a53",
					"withdraw()": "3ccfd60b"
				}
			},
			"storageLayout": {
				"storage": [
					{
						"astId": 3,
						"contract": "EcommerceWithRefund.sol:EcommerceWithRefund",
						"label": "seller",
						"offset": 0,
						"slot": "0",
						"type": "t_address"
					},
					{
						"astId": 5,
						"contract": "EcommerceWithRefund.sol:EcommerceWithRefund",
						"label": "buyer",
						"offset": 0,
						"slot": "1",
						"type": "t_address"
					},
					{
						"astId": 7,
						"contract": "EcommerceWithRefund.sol:EcommerceWithRefund",
						"label": "price",
						"offset": 0,
						"slot": "2",
						"type": "t_uint256"
					},
					{
						"astId": 9,
						"contract": "EcommerceWithRefund.sol:EcommerceWithRefund",
						"label": "itemSold",
						"offset": 0,
						"slot": "3",
						"type": "t_bool"
					},
					{
						"astId": 11,
						"contract": "EcommerceWithRefund.sol:EcommerceWithRefund",
						"label": "refunded",
						"offset": 1,
						"slot": "3",
						"type": "t_bool"
					}
				],
				"types": {
					"t_address": {
						"encoding": "inplace",
						"label": "address",
						"numberOfBytes": "20"
					},
					"t_bool": {
						"encoding": "inplace",
						"label": "bool",
						"numberOfBytes": "1"
					},
					"t_uint256": {
						"encoding": "inplace",
						"label": "uint256",
						"numberOfBytes": "32"
					}
				}
			},
			"userdoc": {
				"kind": "user",
				"methods": {},
				"version": 1
			}
		}
	}
}